{
  "_format": "hh-sol-artifact-1",
  "contractName": "BuyMarijuana",
  "sourceName": "contracts/BuyMarijuana.sol",
  "abi": [
    {
      "inputs": [],
      "stateMutability": "payable",
      "type": "constructor"
    },
    {
      "inputs": [
        {
          "internalType": "string",
          "name": "_message",
          "type": "string"
        },
        {
          "internalType": "string",
          "name": "_name",
          "type": "string"
        }
      ],
      "name": "buymarijuana",
      "outputs": [],
      "stateMutability": "payable",
      "type": "function"
    },
    {
      "inputs": [],
      "name": "getAllMarijuana",
      "outputs": [
        {
          "components": [
            {
              "internalType": "address",
              "name": "supporter",
              "type": "address"
            },
            {
              "internalType": "string",
              "name": "message",
              "type": "string"
            },
            {
              "internalType": "string",
              "name": "name",
              "type": "string"
            },
            {
              "internalType": "uint256",
              "name": "amount",
              "type": "uint256"
            },
            {
              "internalType": "uint256",
              "name": "timestamp",
              "type": "uint256"
            }
          ],
          "internalType": "struct BuyMarijuana.Marijuana[]",
          "name": "",
          "type": "tuple[]"
        }
      ],
      "stateMutability": "view",
      "type": "function"
    },
    {
      "inputs": [],
      "name": "getBalance",
      "outputs": [
        {
          "internalType": "uint256",
          "name": "",
          "type": "uint256"
        }
      ],
      "stateMutability": "view",
      "type": "function"
    },
    {
      "inputs": [],
      "name": "owner",
      "outputs": [
        {
          "internalType": "address payable",
          "name": "",
          "type": "address"
        }
      ],
      "stateMutability": "view",
      "type": "function"
    },
    {
      "inputs": [],
      "name": "withdraw",
      "outputs": [],
      "stateMutability": "nonpayable",
      "type": "function"
    }
  ],
  "bytecode": "0x60806040526200004f6040518060400160405280601981526020017f496e697469616c697a6520536d61727420436f6e7472616374000000000000008152506200009660201b620006171760201c565b33600160006101000a81548173ffffffffffffffffffffffffffffffffffffffff021916908373ffffffffffffffffffffffffffffffffffffffff16021790555062000220565b6200013681604051602401620000ad9190620001fc565b6040516020818303038152906040527f41304fac000000000000000000000000000000000000000000000000000000007bffffffffffffffffffffffffffffffffffffffffffffffffffffffff19166020820180517bffffffffffffffffffffffffffffffffffffffffffffffffffffffff83818316178352505050506200013960201b60201c565b50565b60008151905060006a636f6e736f6c652e6c6f679050602083016000808483855afa5050505050565b600081519050919050565b600082825260208201905092915050565b60005b838110156200019e57808201518184015260208101905062000181565b60008484015250505050565b6000601f19601f8301169050919050565b6000620001c88262000162565b620001d481856200016d565b9350620001e68185602086016200017e565b620001f181620001aa565b840191505092915050565b60006020820190508181036000830152620002188184620001bb565b905092915050565b6110c180620002306000396000f3fe60806040526004361061004a5760003560e01c806312065fe01461004f5780631c6ec6131461007a57806328f6cb69146100a55780633ccfd60b146100c15780638da5cb5b146100d8575b600080fd5b34801561005b57600080fd5b50610064610103565b60405161007191906106f2565b60405180910390f35b34801561008657600080fd5b5061008f61010b565b60405161009c919061092c565b60405180910390f35b6100bf60048036038101906100ba9190610a97565b6102f8565b005b3480156100cd57600080fd5b506100d6610447565b005b3480156100e457600080fd5b506100ed6105f1565b6040516100fa9190610b30565b60405180910390f35b600047905090565b60606000805480602002602001604051908101604052809291908181526020016000905b828210156102ef57838290600052602060002090600502016040518060a00160405290816000820160009054906101000a900473ffffffffffffffffffffffffffffffffffffffff1673ffffffffffffffffffffffffffffffffffffffff1673ffffffffffffffffffffffffffffffffffffffff1681526020016001820180546101b890610b7a565b80601f01602080910402602001604051908101604052809291908181526020018280546101e490610b7a565b80156102315780601f1061020657610100808354040283529160200191610231565b820191906000526020600020905b81548152906001019060200180831161021457829003601f168201915b5050505050815260200160028201805461024a90610b7a565b80601f016020809104026020016040519081016040528092919081815260200182805461027690610b7a565b80156102c35780601f10610298576101008083540402835291602001916102c3565b820191906000526020600020905b8154815290600101906020018083116102a657829003601f168201915b50505050508152602001600382015481526020016004820154815250508152602001906001019061012f565b50505050905090565b343373ffffffffffffffffffffffffffffffffffffffff16311015610352576040517f08c379a000000000000000000000000000000000000000000000000000000000815260040161034990610c08565b60405180910390fd5b60006040518060a001604052803373ffffffffffffffffffffffffffffffffffffffff16815260200184815260200183815260200134815260200142815250908060018154018082558091505060019003906000526020600020906005020160009091909190915060008201518160000160006101000a81548173ffffffffffffffffffffffffffffffffffffffff021916908373ffffffffffffffffffffffffffffffffffffffff16021790555060208201518160010190816104169190610dd4565b50604082015181600201908161042c9190610dd4565b50606082015181600301556080820151816004015550505050565b3373ffffffffffffffffffffffffffffffffffffffff16600160009054906101000a900473ffffffffffffffffffffffffffffffffffffffff1673ffffffffffffffffffffffffffffffffffffffff16146104d7576040517f08c379a00000000000000000000000000000000000000000000000000000000081526004016104ce90610ef2565b60405180910390fd5b60004790506000811161051f576040517f08c379a000000000000000000000000000000000000000000000000000000000815260040161051690610f5e565b60405180910390fd5b6000600160009054906101000a900473ffffffffffffffffffffffffffffffffffffffff1673ffffffffffffffffffffffffffffffffffffffff168260405161056790610faf565b60006040518083038185875af1925050503d80600081146105a4576040519150601f19603f3d011682016040523d82523d6000602084013e6105a9565b606091505b50509050806105ed576040517f08c379a00000000000000000000000000000000000000000000000000000000081526004016105e490611010565b60405180910390fd5b5050565b600160009054906101000a900473ffffffffffffffffffffffffffffffffffffffff1681565b6106ad8160405160240161062b9190611069565b6040516020818303038152906040527f41304fac000000000000000000000000000000000000000000000000000000007bffffffffffffffffffffffffffffffffffffffffffffffffffffffff19166020820180517bffffffffffffffffffffffffffffffffffffffffffffffffffffffff83818316178352505050506106b0565b50565b60008151905060006a636f6e736f6c652e6c6f679050602083016000808483855afa5050505050565b6000819050919050565b6106ec816106d9565b82525050565b600060208201905061070760008301846106e3565b92915050565b600081519050919050565b600082825260208201905092915050565b6000819050602082019050919050565b600073ffffffffffffffffffffffffffffffffffffffff82169050919050565b600061076482610739565b9050919050565b61077481610759565b82525050565b600081519050919050565b600082825260208201905092915050565b60005b838110156107b4578082015181840152602081019050610799565b60008484015250505050565b6000601f19601f8301169050919050565b60006107dc8261077a565b6107e68185610785565b93506107f6818560208601610796565b6107ff816107c0565b840191505092915050565b610813816106d9565b82525050565b600060a083016000830151610831600086018261076b565b506020830151848203602086015261084982826107d1565b9150506040830151848203604086015261086382826107d1565b9150506060830151610878606086018261080a565b50608083015161088b608086018261080a565b508091505092915050565b60006108a28383610819565b905092915050565b6000602082019050919050565b60006108c28261070d565b6108cc8185610718565b9350836020820285016108de85610729565b8060005b8581101561091a57848403895281516108fb8582610896565b9450610906836108aa565b925060208a019950506001810190506108e2565b50829750879550505050505092915050565b6000602082019050818103600083015261094681846108b7565b905092915050565b6000604051905090565b600080fd5b600080fd5b600080fd5b600080fd5b7f4e487b7100000000000000000000000000000000000000000000000000000000600052604160045260246000fd5b6109a4826107c0565b810181811067ffffffffffffffff821117156109c3576109c261096c565b5b80604052505050565b60006109d661094e565b90506109e2828261099b565b919050565b600067ffffffffffffffff821115610a0257610a0161096c565b5b610a0b826107c0565b9050602081019050919050565b82818337600083830152505050565b6000610a3a610a35846109e7565b6109cc565b905082815260208101848484011115610a5657610a55610967565b5b610a61848285610a18565b509392505050565b600082601f830112610a7e57610a7d610962565b5b8135610a8e848260208601610a27565b91505092915050565b60008060408385031215610aae57610aad610958565b5b600083013567ffffffffffffffff811115610acc57610acb61095d565b5b610ad885828601610a69565b925050602083013567ffffffffffffffff811115610af957610af861095d565b5b610b0585828601610a69565b9150509250929050565b6000610b1a82610739565b9050919050565b610b2a81610b0f565b82525050565b6000602082019050610b456000830184610b21565b92915050565b7f4e487b7100000000000000000000000000000000000000000000000000000000600052602260045260246000fd5b60006002820490506001821680610b9257607f821691505b602082108103610ba557610ba4610b4b565b5b50919050565b600082825260208201905092915050565b7f596f7520646f6e2774206861766520656e6f7567682045544800000000000000600082015250565b6000610bf2601983610bab565b9150610bfd82610bbc565b602082019050919050565b60006020820190508181036000830152610c2181610be5565b9050919050565b60008190508160005260206000209050919050565b60006020601f8301049050919050565b600082821b905092915050565b600060088302610c8a7fffffffffffffffffffffffffffffffffffffffffffffffffffffffffffffffff82610c4d565b610c948683610c4d565b95508019841693508086168417925050509392505050565b6000819050919050565b6000610cd1610ccc610cc7846106d9565b610cac565b6106d9565b9050919050565b6000819050919050565b610ceb83610cb6565b610cff610cf782610cd8565b848454610c5a565b825550505050565b600090565b610d14610d07565b610d1f818484610ce2565b505050565b5b81811015610d4357610d38600082610d0c565b600181019050610d25565b5050565b601f821115610d8857610d5981610c28565b610d6284610c3d565b81016020851015610d71578190505b610d85610d7d85610c3d565b830182610d24565b50505b505050565b600082821c905092915050565b6000610dab60001984600802610d8d565b1980831691505092915050565b6000610dc48383610d9a565b9150826002028217905092915050565b610ddd8261077a565b67ffffffffffffffff811115610df657610df561096c565b5b610e008254610b7a565b610e0b828285610d47565b600060209050601f831160018114610e3e5760008415610e2c578287015190505b610e368582610db8565b865550610e9e565b601f198416610e4c86610c28565b60005b82811015610e7457848901518255600182019150602085019450602081019050610e4f565b86831015610e915784890151610e8d601f891682610d9a565b8355505b6001600288020188555050505b505050505050565b7f43616c6c6572206973206e6f7420746865206f776e6572000000000000000000600082015250565b6000610edc601783610bab565b9150610ee782610ea6565b602082019050919050565b60006020820190508181036000830152610f0b81610ecf565b9050919050565b7f596f752068617665206e6f2065746865727320746f2077697468647261770000600082015250565b6000610f48601e83610bab565b9150610f5382610f12565b602082019050919050565b60006020820190508181036000830152610f7781610f3b565b9050919050565b600081905092915050565b50565b6000610f99600083610f7e565b9150610fa482610f89565b600082019050919050565b6000610fba82610f8c565b9150819050919050565b7f5769746864726177206661696c65640000000000000000000000000000000000600082015250565b6000610ffa600f83610bab565b915061100582610fc4565b602082019050919050565b6000602082019050818103600083015261102981610fed565b9050919050565b600061103b8261077a565b6110458185610bab565b9350611055818560208601610796565b61105e816107c0565b840191505092915050565b600060208201905081810360008301526110838184611030565b90509291505056fea26469706673582212202a1b35812953688f5f937c30cb3002ff53df40d95cd183f360d20c9eb914b4d464736f6c63430008120033",
  "linkReferences": {},
  "deployedLinkReferences": {}
}